:100000000C944A000C9467000C9467000C946700F1
:100010000C9467000C9467000C9467000C9495078F
:100020000C9467000C9467000C9467000C946700B4
:100030000C9467000C9467000C9467000C946700A4
:100040000C9467000C9467000C9467000C94670094
:100050000C94670000131A040B1900000006141F0B
:10006000050C000000131E040F1900000006141FE9
:10007000050C00000815020008150200040A110012
:10008000040A11000215080002150800110A0400F4
:10009000110A040011241FBECFE5D8E0DEBFCDBF9A
:1000A00010E0A0E6B0E0E6E2F2E102C005900D92B9
:1000B000A237B107D9F720E0A2E7B0E001C01D9256
:1000C000AD3EB207E1F70E94E8050C9411090C94CB
:1000D0000000FC010396928381832FEF3FEF34836E
:1000E0002383968385839087878310820895FC01FC
:1000F000118610860895CF93DF939C01FB01DC01EC
:100100001196CD91DC911297D383C2838C819D810E
:10011000958384838C819D81DC0113967C936E93FF
:1001200012977D836C8331872087F90180818F5FEF
:100130008083DF91CF910895CF93DF93EB014881C6
:1001400059814F3F2FEF520721F4FC01A781B08561
:100150000DC0DC0113961296ED91FC91139720814E
:1001600031814217530710F0DF01F5CF1296ED9160
:10017000FC911397FB83EA83D583C483BD83AC834F
:100180001396DC93CE93129799878887FC01208180
:100190002F5F2083DF91CF910895CF93DF93FC01F0
:1001A000A085B185C281D381848195819D838C8313
:1001B000C481D581828193819B838A831196CD915D
:1001C000DC911297CE17DF0731F48C819D81129656
:1001D0009C938E931197118610868C9181508C93ED
:1001E000DF91CF910895E0919500F0919600808184
:1001F000811107C08FEF9FEF909376008093750079
:100200000895E0919500F09196000580F681E02D2B
:100210000680F781E02D8281938190937600809310
:10022000750008950F931F93CF93DF93EC01009116
:100230007D0010917E008091CD009091CE000296BD
:100240000E94CD00C00FD11FE091CD00F091CE00F3
:10025000D383C283C017D10768F46091CD00709139
:10026000CE0080919300909194006E5F7F4F0E942A
:100270009C0017C06091CD007091CE0080919500D8
:10028000909196006E5F7F4F0E949C008091750058
:1002900090917600C817D90720F4D0937600C093C8
:1002A0007500DF91CF911F910F9108954F925F924A
:1002B0006F927F928F929F92AF92BF92CF92DF9276
:1002C000EF92FF920F93CF93DF934C016B015A0192
:1002D0002901CA010E9421063C01009709F4DBC0F4
:1002E00086E290E00E942106EC01009771F0788E82
:1002F0006F8A81E0A81AB1086A0C7B1CD6018C9128
:10030000898F8C91811105C016C0C3010E943006EF
:10031000C2C0AE01465E5F4FF601319621E0CF01CB
:100320003191DA013D93AD01DC018C91882319F004
:100330002F5F2830A1F718A2043008F003E00E8BDD
:100340006E01B2E0CB0ED11CC6010E947700CE0137
:100350000C960E947700D987C88784E090E0801BC4
:1003600091099D878C87DB8BCA8B19A21AA21BA2CD
:100370001CA21DA2A201B401C3010E943F069983E1
:100380008883E114F10419F0F701D183C0830FB61B
:10039000F8940F9280917F008F5F80937F0080910F
:1003A000CD009091CE00892BA9F5D093CE00C093BB
:1003B000CD0080917F008130E9F589EA90E00E94CC
:1003C000690082EB90E00E9469008BEB90E00E9454
:1003D000690084EC90E00E94690080EA90E00E944D
:1003E000690087E990E00E9469008AE890E00E9435
:1003F000690081E890E00E94690080EA90E09093B3
:1004000096008093950087E990E090939400809304
:10041000930010C080917B0081110CC0E091CD0051
:10042000F091CE0096898E89891720F0D093CE0066
:10043000C093CD00809177008F5F809377008E8985
:1004400090917C00981710F480937C0090E09C01C0
:10045000220F331F220F331F220F331F820F931FD0
:10046000B60187559F4F0E947B000F900FBE809171
:100470007B00882361F0E091CD00F091CE00968959
:100480008E89981730F40E94E00681E005C081E073
:1004900003C081E001C08FEFDF91CF910F91FF90FA
:1004A000EF90DF90CF90BF90AF909F908F907F9014
:1004B0006F905F904F900895EF92FF920F930F2EE1
:1004C000F3E7EF2EF0E0FF2EF02D00E020E030E02B
:1004D00045E550E066E670E08DED93E00E94560140
:1004E000813081F4F8948FEF9FEF909376008093A2
:1004F000750081E080937B0010927E0010927D0059
:100500000E94AB060F91FF90EF90089580917200CA
:100510008F5F809372000895CF92DF92EF92FF92E7
:100520000F931F93CF93DF9380917200811198C036
:10053000E0907D00F0907E008FEFE81AF80AF092CC
:100540007E00E0927D00E114F104B9F48091950001
:1005500090919600209193003091940030939600F2
:10056000209395009093940080939300809178005D
:100570008F5F809378000E94F300809175009091C6
:100580007600E816F90608F454C0D12CCC24C394A4
:1005900001C0DC2CE0919500F091960080818111E2
:1005A00007C08FEF9FEF909376008093750042C055
:1005B000E0919500F09196000580F681E02DC681CE
:1005C000D7812A813B81E216F30628F43093760026
:1005D000209375002FC08E010E5F1F4FC8010E942F
:1005E000CD008C899D89892B21F0CE010C960E942B
:1005F000CD002E8980917C00821710F420937C001E
:1006000030E0C901880F991F880F991F880F991F23
:10061000820F931FB80187559F4F0E947B00E09186
:10062000CD00F091CE009E898689981708F0B1CF51
:10063000B1CFD12CE091CD00F091CE00868990E031
:10064000FC01EE0FFF1FEE0FFF1FEE0FFF1F8E0FBF
:100650009F1FFC01E755FF4F8081823040F409C0A5
:1006600080917A008F5F80937A00D12C02C0DD24C4
:10067000D39480917900882311F0DD24D3948D2DBB
:10068000DF91CF911F910F91FF90EF90DF90CF906E
:100690000895DF92EF92FF920F931F93CF93DF9312
:1006A0000FB6F8940F92809172008150809372007F
:1006B0008091720081115EC080917F00882309F4CF
:1006C0005BC0C0E0D0E00F2EFAE8EF2EF0E0FF2E86
:1006D000F02DDD24D39430C0E0918F00F091900094
:1006E000C681D781CE010C960E94CD008E010E5F8F
:1006F0001F4FC8010E94CD008E8990917C009817F1
:1007000010F480937C0090E09C01220F331F220F95
:10071000331F220F331F820F931FB80187559F4F3E
:100720000E947B00E091CD00F091CE009E898689E9
:10073000981710F0D0927900F70180818111CCCF09
:10074000CD2B11F00E94F300C0917A00CC2351F020
:10075000D1E00E948C028111D0937900C150C9F779
:1007600010927A0080917900882341F00E94E0067F
:1007700081E005C080E003C080E001C080E00F9010
:100780000FBEDF91CF911F910F91FF90EF90DF90FF
:100790000895CF93DF93EC01009751F00E948602F9
:1007A00060E0CE010E9412010E944903811102C043
:1007B0000E94E006DF91CF9108950F2EF9EAEF2E07
:1007C000F0E0FF2EF02DC1E8D0E028C00E948602A4
:1007D00018810E944903112309F10FB6F8940F9272
:1007E000E0918600F091870006811781C80102968A
:1007F0000E94CD0080917F00815080937F00809186
:1008000080008150809380000F900FBEF80187898F
:10081000908D0E943006C8010E94300680918000B1
:100820008111D4CFF7018081823010F00E94E00660
:100830000E942006F3CF80917200882321F081E08E
:100840008093790008951092790020917C00822F86
:1008500090E0FC01EE0FFF1FEE0FFF1FEE0FFF1FDA
:10086000E80FF91FE755FF4F3081311111C02150BA
:10087000822F90E0FC01EE0FFF1FEE0FFF1FEE0F27
:10088000FF1FE80FF91FE755FF4F3081332379F33E
:10089000FC01EE0FFF1FEE0FFF1FEE0FFF1F8E0F6D
:1008A0009F1FFC01E755FF4FA181B28112960D9069
:1008B000BC91A02DB283A183CF010396A817B907DD
:1008C00031F412968D919C911397928381830180CC
:1008D000F281E02D868197819093CE008093CD00A8
:1008E00020937C00089580FF02C0AC9A01C0AC98B0
:1008F00081FF02C0AD9A01C0AD9882FF02C0AE9ADE
:1009000001C0AE9883FF02C0AF9A0895AF980895D2
:10091000CF93C82FAB9A82958F700E947304AB98C7
:10092000AB9A8C2F0E947304AB9887EC90E00197F0
:10093000F1F700C00000CF910895AA980E948804A2
:100940000895AA9A0E9488040895CF93DF93EC013A
:100950008881882331F021960E94A1048991811118
:10096000FBCFDF91CF91089590E4699F800D112412
:1009700080680E949D040895CF93A49AA59AA69A90
:10098000A79AA39AA29A8FE59AEE0197F1F700C071
:100990000000AA98AB98C3E0AB9A83E00E9473046E
:1009A000AB988FE19EE40197F1F700C00000C150C1
:1009B00099F7AB9A82E00E947304AB988FE99FE0AD
:1009C0000197F1F700C0000088E20E949D0488E0D2
:1009D0000E949D0481E00E949D048FE39FE10197A6
:1009E000F1F700C0000086E00E949D048CE00E94A8
:1009F0009D04CF9108950F931F93CF93DF93880F9A
:100A0000991F880F991F880F991F082F0064C62F00
:100A1000D72F10E0812F802B0E949D0489910E9486
:100A2000A1041F5F1830B1F786E00E949D04DF919A
:100A3000CF911F910F910895CF92DF92FF920F9364
:100A40001F93CF93DF93AFECB0E0E7EDF0E040E031
:100A500050E00F2EF3E0FF2EF02D02E011E06F01C9
:100A600020813181220F331F31832083EC01688183
:100A700070E0042E02C0759567950A94E2F760FD58
:100A800003C0216031832083E601288139813296B9
:100A90002F3F310541F46C91611119C01C932BB3A8
:100AA00020952BBB17C02F3FDFEF3D0729F42C917A
:100AB000213081F40C930EC0211109C0B9016627C1
:100AC000672B29F06C91623011F4FC9203C0232B48
:100AD00009F41C924F5F5F4F11964830510509F0A1
:100AE000BECFDF91CF911F910F91FF90DF90CF90FC
:100AF0000895CF92DF92EF92FF920F931F93CF93BF
:100B0000DF93CDB7DEB728970FB6F894DEBF0FBEE0
:100B1000CDBF0F2EF4E5CF2EF0E0DF2EF02DE12C2F
:100B2000F12C8E01075F1F4F16C084918D93319673
:100B3000A017B107D1F7BE016F5F7F4FC7010E94B9
:100B4000FB048FEFE81AF80A88E0C80ED11C88E091
:100B5000E816F10421F0DE011196F601E6CF2896A1
:100B60000FB6F894DEBF0FBECDBFDF91CF911F91BE
:100B70000F91FF90EF90DF90CF900895CF93DF9388
:100B800000D000D0CDB7DEB780E390E3DC018983ED
:100B90009A83AB83BC8319E01093E80080E390E074
:100BA0000E941C058091E8004AE0BE016F5F7F4F04
:100BB00090E00E94BF0861E080E00E94B404CE0192
:100BC00001960E94A50488EC90E00E94C903E4CF3E
:100BD000EF92FF920F93CF93DF931F92CDB7DEB7C3
:100BE00041E050E060E570E0CE0101960E94E4082B
:100BF00069816F5F698380E590E00E94F4080E943C
:100C0000BC040E94790517BA8FEF88BB8ABB1BBA58
:100C1000E12CF12C03E020E030E045E550E06BE60C
:100C200070E08EEB95E00E9456010E945C0280E02D
:100C300090E00F90DF91CF910F91FF90EF9008958A
:100C40000895CF93DF93EC010E948602CE010E94AB
:100C50009807EC010E944903CE01DF91CF910895DE
:100C6000CF93DF93EC01009739F00E948602CE010A
:100C70000E9430080E944903DF91CF91089531E12D
:100C8000FC013083319722E220833197A3E3A083D4
:100C9000319760833197708331971082319760E884
:100CA000608331971082319762E06083319763E00F
:100CB0006083319764E06083319765E060833197AA
:100CC00066E06083319767E06083319768E0608316
:100CD000319769E06083319760E1608331973083B9
:100CE000319732E13083319733E13083319734E10A
:100CF0003083319735E13083319736E13083319756
:100D000037E13083319738E13083319739E13083EF
:100D1000319730E23083319731E23083319720834D
:100D2000319723E220833197408331975083319765
:100D300026E22083319727E22083319728E220831F
:100D4000319729E22083319720E32083319721E3F3
:100D50002083869708951BBC89EF8ABD8BE08EBDEA
:100D600089B7806189BFA091CD00B091CE00CD91AF
:100D7000CDBFDD91DEBFFF91EF91DF91CF91BF91AC
:100D8000AF919F918F917F916F915F914F913F9123
:100D90002F911F910F91FF90EF90DF90CF90BF9018
:100DA000AF909F908F907F906F905F904F903F900B
:100DB0002F901F900F900FBE0F90089581E008951F
:100DC0000F920FB6F8940F921F9211242F923F9218
:100DD0004F925F926F927F928F929F92AF92BF924B
:100DE000CF92DF92EF92FF920F931F932F933F9337
:100DF0004F935F936F937F938F939F93AF93BF9323
:100E0000CF93DF93EF93FF93A091CD00B091CE00ED
:100E10000DB60D920EB60D920E941B04A091CD004E
:100E2000B091CE00CD91CDBFDD91DEBFFF91EF91AE
:100E3000DF91CF91BF91AF919F918F917F916F91F2
:100E40005F914F913F912F911F910F91FF90EF90E4
:100E5000DF90CF90BF90AF909F908F907F906F90DA
:100E60005F904F903F902F901F900F900FBE0F906C
:100E700008950F920FB6F8940F921F9211242F929B
:100E80003F924F925F926F927F928F929F92AF921A
:100E9000BF92CF92DF92EF92FF920F931F932F9307
:100EA0003F934F935F936F937F938F939F93AF93F2
:100EB000BF93CF93DF93EF93FF93A091CD00B091B9
:100EC000CE000DB60D920EB60D920E948C028111CD
:100ED0000E941B04A091CD00B091CE00CD91CDBF5A
:100EE000DD91DEBFFF91EF91DF91CF91BF91AF9187
:100EF0009F918F917F916F915F914F913F912F9132
:100F00001F910F91FF90EF90DF90CF90BF90AF9027
:100F10009F908F907F906F905F904F903F902F9019
:100F20001F900F900FBE0F9008950E9439071895DB
:100F3000CF93DF938230910510F482E090E0E0914E
:100F4000EB00F091EC0020E030E0A0E0B0E0309762
:100F500039F14081518148175907B8F048175907AE
:100F600071F482819381109729F013969C938E934C
:100F700012972CC09093EC008093EB0027C02115B2
:100F8000310531F04217530718F0A901DB0101C008
:100F9000EF019A01BD01DF010280F381E02DD7CF7F
:100FA00021153105F9F0281B390B2430310580F467
:100FB0008A819B816115710521F0FB0193838283F6
:100FC00004C09093EC008093EB00FE01329644C085
:100FD000FE01E20FF31F819391932250310939836F
:100FE00028833AC02091E9003091EA00232B41F494
:100FF00020916200309163003093EA002093E90071
:1010000020916000309161002115310541F42DB728
:101010003EB74091640050916500241B350BE09170
:10102000E900F091EA00E217F307A0F42E1B3F0B52
:101030002817390778F0AC014E5F5F4F241735074A
:1010400048F04E0F5F1F5093EA004093E9008193F0
:10105000919302C0E0E0F0E0CF01DF91CF910895DD
:10106000CF93DF93009709F487C0FC013297138276
:101070001282C091EB00D091EC00209781F4208186
:101080003181280F391F8091E9009091EA00821781
:10109000930779F5F093EA00E093E9006DC0DE0173
:1010A00020E030E0AE17BF0750F412964D915C91EE
:1010B00013979D014115510509F1DA01F3CFB3836F
:1010C000A28340815181840F951F8A179B0771F479
:1010D0008D919C911197840F951F02969183808327
:1010E00012968D919C9113979383828321153105DC
:1010F00029F4F093EC00E093EB003EC0D901139685
:10110000FC93EE9312974D915D91A40FB51FEA17D2
:10111000FB0779F480819181840F951F0296D90194
:1011200011969C938E938281938113969C938E93B8
:101130001297E0E0F0E08A819B81009719F0FE01B0
:10114000EC01F9CFCE01029628813981820F931FDD
:101150002091E9003091EA002817390769F43097A7
:1011600029F41092EC001092EB0002C0138212825C
:10117000D093EA00C093E900DF91CF910895BB2797
:101180004A3031F4992322F4BDE2909581959F4F26
:101190000C94CB08BB27FB015527AA27880F991F62
:1011A000AA1FA41710F0A41B83955051B9F7A05D96
:1011B000AA3308F0A95DA193009779F7B111B19313
:1011C0001192CB010C940109DC01CB01FC01E199E6
:1011D000FECF06C0FFBBEEBBE09A31960DB20D927A
:1011E00041505040B8F70895262FE199FECF9FBB9C
:1011F0008EBB2DBB0FB6F894E29AE19A0FBE019612
:101200000895DC01FC01672F71917723E1F7329794
:1012100004C07C916D9370836291AE17BF07C8F3D1
:061220000895F894FFCFD1
:101226000000ED00200049444C4500646562756786
:021236000000B6
:00000001FF
