:100000000C944A000C9467000C9467000C946700F1
:100010000C94460A0C9467000C9467000C948507B6
:100020000C9467000C9467000C9467000C94D50A3C
:100030000C9467000C9467000C9467000C946700A4
:100040000C94B3070C9467000C9467000C94670041
:100050000C94670000131A040B1900000006141F0B
:10006000050C000000131E040F1900000006141FE9
:10007000050C00000815020008150200040A110012
:10008000040A11000215080002150800110A0400F4
:10009000110A040011241FBECFE5D8E0DEBFCDBF9A
:1000A00010E0A0E6B0E0E2E6FCE102C005900D92AF
:1000B000A83AB107D9F721E0A8EAB0E001C01D9243
:1000C000AB32B207E1F70E94B9050C942F0E0C94E5
:1000D0000000FC010396928381832FEF3FEF34836E
:1000E0002383968385839087878310820895FC01FC
:1000F000118610860895CF93DF939C01FB01DC01EC
:100100001196CD91DC911297D383C2838C819D810E
:10011000958384838C819D81DC0113967C936E93FF
:1001200012977D836C8331872087F90180818F5FEF
:100130008083DF91CF910895CF93DF93EB014881C6
:1001400059814F3F2FEF520721F4FC01A781B08561
:100150000DC0DC0113961296ED91FC91139720814E
:1001600031814217530710F0DF01F5CF1296ED9160
:10017000FC911397FB83EA83D583C483BD83AC834F
:100180001396DC93CE93129799878887FC01208180
:100190002F5F2083DF91CF910895CF93DF93FC01F0
:1001A000A085B185C281D381848195819D838C8313
:1001B000C481D581828193819B838A831196CD915D
:1001C000DC911297CE17DF0731F48C819D81129656
:1001D0009C938E931197118610868C9181508C93ED
:1001E000DF91CF910895E091CB00F091CC00808118
:1001F000811107C08FEF9FEF9093AC008093AB000D
:100200000895E091CB00F091CC000580F681E02DBF
:100210000680F781E02D828193819093AC008093DA
:10022000AB0008950F931F93CF93DF93EC010091E0
:10023000B3001091B40080910301909104010296E3
:100240000E94CD00C00FD11FE0910301F091040185
:10025000D383C283C017D10768F460910301709102
:1002600004018091C9009091CA006E5F7F4F0E9487
:100270009C0017C060910301709104018091CB0034
:100280009091CC006E5F7F4F0E949C008091AB00EC
:100290009091AC00C817D90720F4D093AC00C0935C
:1002A000AB00DF91CF911F910F9108954F925F9214
:1002B0006F927F928F929F92AF92BF92CF92DF9276
:1002C000EF92FF920F93CF93DF934C016B015A0192
:1002D0002901CA010E9411063C01009709F4DBC004
:1002E00086E290E00E941106EC01009771F0788E92
:1002F0006F8A81E0A81AB1086A0C7B1CD6018C9128
:10030000898F8C91811105C016C0C3010E942006FF
:10031000C2C0AE01465E5F4FF601319621E0CF01CB
:100320003191DA013D93AD01DC018C91882319F004
:100330002F5F2830A1F718A2043008F003E00E8BDD
:100340006E01B2E0CB0ED11CC6010E947700CE0137
:100350000C960E947700D987C88784E090E0801BC4
:1003600091099D878C87DB8BCA8B19A21AA21BA2CD
:100370001CA21DA2A201B401C3010E942F069983F1
:100380008883E114F10419F0F701D183C0830FB61B
:10039000F8940F928091B5008F5F8093B5008091A3
:1003A000030190910401892BA9F5D0930401C09316
:1003B00003018091B5008130E9F58FED90E00E9456
:1003C000690088EE90E00E94690081EF90E00E9451
:1003D00069008AEF90E00E94690086ED90E00E943B
:1003E00069008DEC90E00E94690080EC90E00E9432
:1003F000690087EB90E00E94690086ED90E09093A1
:10040000CC008093CB008DEC90E09093CA00809359
:10041000C90010C08091B10081110CC0E0910301AE
:10042000F091040196898E89891720F0D0930401F8
:10043000C09303018091AD008F5F8093AD008E89E2
:100440009091B200981710F48093B20090E09C0154
:10045000220F331F220F331F220F331F820F931FD0
:10046000B60181529F4F0E947B000F900FBE80917A
:10047000B100882361F0E0910301F09104019689B5
:100480008E89981730F40E94D00681E005C081E083
:1004900003C081E001C08FEFDF91CF910F91FF90FA
:1004A000EF90DF90CF90BF90AF909F908F907F9014
:1004B0006F905F904F900895EF92FF920F930F2EE1
:1004C000F9EAEF2EF0E0FF2EF02D00E020E030E022
:1004D00045E550E06AE670E08DED93E00E9456013C
:1004E000813081F4F8948FEF9FEF9093AC0080936C
:1004F000AB0081E08093B1001092B4001092B30081
:100500000E949B060F91FF90EF9008958091A800A4
:100510008F5F8093A8000895CF92DF92EF92FF92B1
:100520000F931F93CF93DF938091A800811198C000
:10053000E090B300F090B4008FEFE81AF80AF09260
:10054000B400E092B300E114F104B9F48091CB005F
:100550009091CC002091C9003091CA003093CC001A
:100560002093CB009093CA008093C9008091AE0085
:100570008F5F8093AE000E94F3008091AB0090915A
:10058000AC00E816F90608F454C0D12CCC24C3946E
:1005900001C0DC2CE091CB00F091CC008081811176
:1005A00007C08FEF9FEF9093AC008093AB0042C0E9
:1005B000E091CB00F091CC000580F681E02DC68162
:1005C000D7812A813B81E216F30628F43093AC00F0
:1005D0002093AB002FC08E010E5F1F4FC8010E94F9
:1005E000CD008C899D89892B21F0CE010C960E942B
:1005F000CD002E898091B200821710F42093B200B2
:1006000030E0C901880F991F880F991F880F991F23
:10061000820F931FB80181529F4F0E947B00E0918F
:100620000301F09104019E898689981708F0B1CFE3
:10063000B1CFD12CE0910301F0910401868990E0C3
:10064000FC01EE0FFF1FEE0FFF1FEE0FFF1F8E0FBF
:100650009F1FFC01E152FF4F8081823040F409C0AE
:100660008091B0008F5F8093B000D12C02C0DD2458
:10067000D3948091AF00882311F0DD24D3948D2D85
:10068000DF91CF911F910F91FF90EF90DF90CF906E
:100690000895DF92EF92FF920F931F93CF93DF9312
:1006A0000FB6F8940F928091A80081508093A80013
:1006B0008091A80081115EC08091B500882309F463
:1006C0005BC0C0E0D0E00F2EF0ECEF2EF0E0FF2E8C
:1006D000F02DDD24D39430C0E091C500F091C60028
:1006E000C681D781CE010C960E94CD008E010E5F8F
:1006F0001F4FC8010E94CD008E899091B2009817BB
:1007000010F48093B20090E09C01220F331F220F5F
:10071000331F220F331F820F931FB80181529F4F47
:100720000E947B00E0910301F09104019E8986897B
:10073000981710F0D092AF00F70180818111CCCFD3
:10074000CD2B11F00E94F300C091B000CC2351F0EA
:10075000D1E00E948C028111D093AF00C150C9F743
:100760001092B0008091AF00882341F00E94D00623
:1007700081E005C080E003C080E001C080E00F9010
:100780000FBEDF91CF911F910F91FF90EF90DF90FF
:100790000895CF93DF93EC01009751F00E948602F9
:1007A00060E0CE010E9412010E944903811102C043
:1007B0000E94D006DF91CF9108950F2EFFEDEF2E0E
:1007C000F0E0FF2EF02DC7EBD0E028C00E9486029B
:1007D00018810E944903112309F10FB6F8940F9272
:1007E000E091BC00F091BD0006811781C80102961E
:1007F0000E94CD008091B50081508093B50080911A
:10080000B60081508093B6000F900FBEF801878923
:10081000908D0E942006C8010E9420068091B6009B
:100820008111D4CFF7018081823010F00E94D00670
:100830000E941006F3CF8091A800882321F081E068
:100840008093AF0008951092AF002091B200822FE4
:1008500090E0FC01EE0FFF1FEE0FFF1FEE0FFF1FDA
:10086000E80FF91FE152FF4F3081311111C02150C3
:10087000822F90E0FC01EE0FFF1FEE0FFF1FEE0F27
:10088000FF1FE80FF91FE152FF4F3081332379F347
:10089000FC01EE0FFF1FEE0FFF1FEE0FFF1F8E0F6D
:1008A0009F1FFC01E152FF4FA181B28112960D9072
:1008B000BC91A02DB283A183CF010396A817B907DD
:1008C00031F412968D919C911397928381830180CC
:1008D000F281E02D8681978190930401809303013A
:1008E0002093B200089580FF02C0AC9A01C0AC987A
:1008F00081FF02C0AD9A01C0AD9882FF02C0AE9ADE
:1009000001C0AE9883FF02C0AF9A0895AF980895D2
:10091000CF93C82FAB9A82958F700E947304AB98C7
:10092000AB9A8C2F0E947304AB9887EC90E00197F0
:10093000F1F700C00000CF910895AA980E948804A2
:100940000895AA9A0E9488040895CF93DF93EC013A
:100950008881882331F021960E94A1048991811118
:10096000FBCFDF91CF91089590E4699F800D112412
:1009700080680E949D04089581E00E949D048FE399
:100980009FE10197F1F700C000000895CF93A49A6A
:10099000A59AA69AA79AA39AA29A8FE59AEE01978A
:1009A000F1F700C00000AA98AB98C3E0AB9A83E0CF
:1009B0000E947304AB988FE19EE40197F1F700C0A9
:1009C0000000C15099F7AB9A82E00E947304AB9883
:1009D0008FE99FE00197F1F700C0000088E20E94D4
:1009E0009D0488E00E949D0481E00E949D048FE3A5
:1009F0009FE10197F1F700C0000086E00E949D048E
:100A00008CE00E949D04CF9108950F931F93CF9384
:100A1000DF93880F991F880F991F880F991F082F40
:100A20000064C62FD72F10E0812F802B0E949D04D9
:100A300089910E94A1041F5F1830B1F786E00E94DF
:100A40009D04DF91CF911F910F910895CF92DF9276
:100A5000EF92FF920F931F93CF93DF93CDB7DEB743
:100A600028970FB6F894DEBF0FBECDBF0F2EF4E56A
:100A7000CF2EF0E0DF2EF02DE12CF12C8E01075F60
:100A80001F4F16C084918D933196A017B107D1F7EF
:100A9000BE016F5F7F4FC7010E9405058FEFE81A07
:100AA000F80A88E0C80ED11C88E0E816F10421F0AD
:100AB000DE011196F601E6CF28960FB6F894DEBF58
:100AC0000FBECDBFDF91CF911F910F91FF90EF909F
:100AD000DF90CF9008950E942B0987E390E00E9459
:100AE000C903F9CF86E390E00E947A0983E090E0A1
:100AF0000E94C903F7CFCF93DF9300D000D0CDB7CA
:100B0000DEB780E390E0A0E0B0E089839A83AB8316
:100B1000BC830E94D00780911F01869583700E943C
:100B20000E0A80911F0186958695869583700E9496
:100B3000EF090E9425094AE0BE016F5F7F4F9927A8
:100B400087FD90950E94DD0D61E086E00E94B4046F
:100B50008FE690E00E94A50461E08BE00E94B4045F
:100B6000CE0101960E94A50486E490E00E94C9038C
:100B7000D0CFEF92FF920F93CF93DF931F92CDB719
:100B8000DEB741E050E060E570E0CE0101960E94E2
:100B9000020E69816F5F698380E590E00E94120E0A
:100BA00017BA8FEF88BB81BB82BB1ABA8BBB84E1BB
:100BB000809325010E9488070E94360A0E942C0A11
:100BC0000E94C6040E942605E12CF12C03E020E0DF
:100BD00030E045E550E065E770E08BE795E00E9486
:100BE000560120E030E045E550E06BE770E082E739
:100BF00095E00E94560120E030E045E550E062E8D3
:100C000070E08BE695E00E9456010E945C0280E055
:100C100090E00F90DF91CF910F91FF90EF900895AA
:100C20000895CF93DF93EC010E948602CE010E94CB
:100C3000AB0CEC010E944903CE01DF91CF910895E6
:100C4000CF93DF93EC01009739F00E948602CE012A
:100C50000E94430D0E944903DF91CF91089531E135
:100C6000FC013083319722E220833197A3E3A083F4
:100C7000319760833197708331971082319760E8A4
:100C8000608331971082319762E06083319763E02F
:100C90006083319764E06083319765E060833197CA
:100CA00066E06083319767E06083319768E0608336
:100CB000319769E06083319760E1608331973083D9
:100CC000319732E13083319733E13083319734E12A
:100CD0003083319735E13083319736E13083319776
:100CE00037E13083319738E13083319739E1308310
:100CF000319730E23083319731E23083319720836E
:100D0000319723E220833197408331975083319785
:100D100026E22083319727E22083319728E220833F
:100D2000319729E22083319720E32083319721E313
:100D30002083869708951BBC89EF8ABD8BE08EBD0A
:100D400089B7806189BFA0910301B0910401CD9161
:100D5000CDBFDD91DEBFFF91EF91DF91CF91BF91CC
:100D6000AF919F918F917F916F915F914F913F9143
:100D70002F911F910F91FF90EF90DF90CF90BF9038
:100D8000AF909F908F907F906F905F904F903F902B
:100D90002F901F900F900FBE0F90089581E008953F
:100DA0000F920FB6F8940F921F9211242F923F9238
:100DB0004F925F926F927F928F929F92AF92BF926B
:100DC000CF92DF92EF92FF920F931F932F933F9357
:100DD0004F935F936F937F938F939F93AF93BF9343
:100DE000CF93DF93EF93FF93A0910301B0910401A0
:100DF0000DB60D920EB60D920E941B04A091030138
:100E0000B0910401CD91CDBFDD91DEBFFF91EF9197
:100E1000DF91CF91BF91AF919F918F917F916F9112
:100E20005F914F913F912F911F910F91FF90EF9004
:100E3000DF90CF90BF90AF909F908F907F906F90FA
:100E40005F904F903F902F901F900F900FBE0F908C
:100E500008950F920FB6F8940F921F9211242F92BB
:100E60003F924F925F926F927F928F929F92AF923A
:100E7000BF92CF92DF92EF92FF920F931F932F9327
:100E80003F934F935F936F937F938F939F93AF9312
:100E9000BF93CF93DF93EF93FF93A0910301B091A2
:100EA00004010DB60D920EB60D920E948C028111B6
:100EB0000E941B04A0910301B0910401CD91CDBF0C
:100EC000DD91DEBFFF91EF91DF91CF91BF91AF91A7
:100ED0009F918F917F916F915F914F913F912F9152
:100EE0001F910F91FF90EF90DF90CF90BF90AF9048
:100EF0009F908F907F906F905F904F903F902F903A
:100F00001F900F900FBE0F9008950E94290718950B
:100F1000F89480E487B9339A86B1866086B9379AA7
:100F2000789408958091210190912201959587955B
:100F30009595879595958795089580912301909132
:100F4000240195958795959587959595879508950D
:100F5000811104C087B1887F87B903C0813009F44B
:100F6000389A369A08951F920F920FB60F92112455
:100F70008F939F93389B07C084B195B190932201C2
:100F80008093210106C084B195B190932401809390
:100F900023019F918F910F900FBE0F901F90189576
:100FA000CF93DF9300D000D0CDB7DEB780E390E3DE
:100FB000DC0189839A83AB83BC830E94BC0480914B
:100FC0001F0180FFA6C060E070E080E090E00E941A
:100FD000B4048FE890E00E94A50480911F018695DB
:100FE00083704AE050E0BE016F5F7F4F90E00E9447
:100FF000D20D60E070E082E090E00E94B404CE0187
:1010000001960E94A50460E070E084E090E00E94F8
:10101000B40482E990E00E94A50480911F018695A6
:101020008695869583704AE050E0BE016F5F7F4FE2
:1010300090E00E94D20D60E070E086E090E00E94B7
:10104000B404CE0101960E94A50460E070E088E03F
:1010500090E00E94B40480911F0185FF05C085E9DE
:1010600090E00E94A50404C087E990E00E94A504D6
:1010700060E070E08BE090E00E94B40489E990E0C9
:101080000E94A504809125014AE050E0BE016F5FF7
:101090007F4F992787FD90950E94D20D60E070E008
:1010A0008DE090E00E94B404CE0101960E94A50458
:1010B00061E070E080E090E00E94B4048CE990E090
:1010C0000E94A5040E940B094AE050E0BE016F5F38
:1010D0007F4F0E94D20D61E070E082E090E00E94BC
:1010E000B404CE0101960E94A50460E070E089E09E
:1010F00090E00E94B40480911F0186FF05C08FE933
:1011000090E00E94A5040FC081EA90E00E94A5042F
:101110000AC060E070E080E090E00E94B40483EADE
:1011200090E00E94A5040F900F900F900F90DF9118
:10113000CF91089595E2899F912D1124282F291B85
:101140002695290F26952695922F990F990F990F7D
:10115000921B282F291B31F490911F0181E08927D0
:1011600080931F0130911F0130FF36C0832F82957D
:1011700086958695837081F5213069F4832F86707A
:1011800090E0069724F43E5F30931F011CC0397F26
:1011900030931F0118C0223069F4832F887190E0CA
:1011A000489724F4385F30931F010895377E3093B9
:1011B0001F010895233039F490911F0180E289279F
:1011C00080931F010895243029F590911F0180E438
:1011D000892780931F010895832F81748134D1F46E
:1011E000243029F480E4382730931F0108952530F6
:1011F00041F48091250184326CF48F5F8093250146
:101200000895263039F480912501843F1CF08150E7
:1012100080932501089580E00E94A8070E9492070C
:10122000BC0180E090E00E94F50B20E030E040E25D
:1012300050E40E945C0B20E030E040E651E40E9464
:10124000F30A0E94C40B862F089581E00E94A8072C
:101250000E949D0708950E940B0960911F01962F1F
:101260009174913409F045C020912501332727FD61
:10127000309590E08217930774F4A901481B590B2D
:101280004830510524F06E6360931F0104C0617CF7
:10129000626360931F0128173907ACF460911F0146
:1012A000AC01421B530B483051053CF0677C685E33
:1012B000697F6C5F60931F0106C0677C685F697F10
:1012C0006E5F60931F012817390729F480911F0171
:1012D000817E80931F0180911F018695869586955A
:1012E00083700E94EF0980911F01869583700E9490
:1012F0000E0A08959F92AF92BF92CF92DF92EF9223
:10130000FF920F931F93CF93DF936C010F2EF5E0A5
:10131000EF2EF1E0FF2EF02D0DE011E0C0E0D0E067
:101320000F2EF3E09F2EF02D6894AA24A1F8BB2481
:10133000B3948C2F9D2FF80120813181220F331F10
:1013400031832083D6014C9150E00C2E02C055957C
:1013500047950A94E2F740FD03C021603183208362
:10136000208131810E5F1F4FA90155274F3F510545
:1013700041F4F7016081611104C0B0820E949A08B3
:101380001AC02F3FFFEF3F0731F4D7018C91813016
:1013900011F4AC9210C0452B51F4C9018827892B58
:1013A00031F0F7018081823011F4908204C0232B48
:1013B00011F4D7011C922196BFEFEB1AFB0AC8303B
:1013C000D10509F0B6CFDF91CF911F910F91FF901A
:1013D000EF90DF90CF90BF90AF909F900895909145
:1013E0001F0190FF17C0837021F48FEF80931E01BF
:1013F0000895813021F48CED80931E010895823090
:1014000021F486E980931E010895833031F410920F
:101410001E0108958FEF80931E01089590911F0182
:1014200090FF17C0837019F410922601089581303F
:1014300021F484E0809326010895823021F48CE227
:10144000809326010895833031F488EE809326013D
:101450000895109226010895F89483B7826083BF9F
:1014600089B7816089BF12BE78940895F89485EF9A
:1014700083BD8BE685BD89B7806889BF88B78068E2
:1014800088BF82B5807F82BD789408951F920F92A5
:101490000FB60F9211248F929F92AF92BF92CF926C
:1014A000DF92EF92FF922F933F934F935F936F934F
:1014B0007F938F939F93AF93BF93EF93FF9360912D
:1014C0001E0182E3689FB0011124882777FD809573
:1014D000982F0E94F70B6B017C0180906600909022
:1014E0006700A0906800B0906900A50194010E9477
:1014F000580B882384F420E030E040E85FE3C50126
:10150000B4010E94F30A60936600709367008093B1
:101510006800909369008090660090906700A090AA
:101520006800B0906900A5019401C701B6010E944E
:10153000A70C181684F420E030E040E85FE3C50112
:10154000B4010E94F40A6093660070936700809370
:1015500068009093690020E030E048E452E4609134
:1015600066007091670080916800909169000E9408
:101570005C0B0E94C90B63BDFF91EF91BF91AF91CE
:101580009F918F917F916F915F914F913F912F919B
:10159000FF90EF90DF90CF90BF90AF909F908F9093
:1015A0000F900FBE0F901F9018951F920F920FB6BD
:1015B0000F9211248F939F9390911D01809126018A
:1015C000981710F4969801C0969A8AEF82BF80917E
:1015D0001D018F5F80931D019F918F910F900FBE12
:1015E0000F901F9018955058BB27AA270ED075C191
:1015F00066D130F06BD120F031F49F3F11F41EF42E
:101600005BC10EF4E095E7FB51C1E92F77D180F380
:10161000BA17620773078407950718F071F49EF5EF
:101620008FC10EF4E0950B2EBA2FA02D0B01B9013E
:1016300090010C01CA01A0011124FF27591B99F048
:10164000593F50F4503E68F11A16F040A22F232F54
:10165000342F4427585FF3CF469537952795A795A4
:10166000F0405395C9F77EF41F16BA0B620B730B4B
:10167000840BBAF09150A1F0FF0FBB1F661F771FBC
:10168000881FC2F70EC0BA0F621F731F841F48F471
:10169000879577956795B795F7959E3F08F0B3CFF7
:1016A0009395880F08F09927EE0F979587950895E1
:1016B000D9D008F481E008950CD00FC107D140F0D3
:1016C000FED030F021F45F3F19F0F0C0511139C164
:1016D000F3C014D198F39923C9F35523B1F3951BA3
:1016E000550BBB27AA2762177307840738F09F5F43
:1016F0005F4F220F331F441FAA1FA9F333D00E2EB2
:101700003AF0E0E830D091505040E695001CCAF71E
:1017100029D0FE2F27D0660F771F881FBB1F2617E3
:1017200037074807AB07B0E809F0BB0B802DBF01B6
:10173000FF2793585F4F2AF09E3F510568F0B6C0CF
:1017400000C15F3FECF3983EDCF386957795679593
:10175000B795F7959F5FC9F7880F911D9695879567
:1017600097F90895E1E0660F771F881FBB1F621786
:1017700073078407BA0720F0621B730B840BBA0B44
:10178000EE1F88F7E095089504D06894B111D9C090
:101790000895BCD088F09F5790F0B92F9927B75182
:1017A000A0F0D1F0660F771F881F991F1AF0BA9525
:1017B000C9F712C0B13081F0C3D0B1E00895C0C004
:1017C000672F782F8827B85F39F0B93FCCF386951B
:1017D00077956795B395D9F73EF490958095709578
:1017E00061957F4F8F4F9F4F0895E89409C097FBF5
:1017F0003EF490958095709561957F4F8F4F9F4FE8
:101800009923A9F0F92F96E9BB279395F69587952B
:1018100077956795B795F111F8CFFAF4BB0F11F4EE
:1018200060FF1BC06F5F7F4F8F4F9F4F16C0882395
:1018300011F096E911C0772321F09EE8872F762FCB
:1018400005C0662371F096E8862F70E060E02AF00C
:101850009A95660F771F881FDAF7880F96958795F8
:1018600097F90895990F0008550FAA0BE0E8FEEFCD
:1018700016161706E807F907C0F012161306E40754
:10188000F50798F0621B730B840B950B39F40A264D
:1018900061F0232B242B252B21F408950A2609F42B
:1018A000A140A6958FEF811D811D089597F99F672F
:1018B00080E870E060E008959FEF80EC08950024D8
:1018C0000A941616170618060906089500240A94A5
:1018D00012161306140605060895092E0394000C2B
:1018E00011F4882352F0BB0F40F4BF2B11F460FFBA
:1018F00004C06F5F7F4F8F4F9F4F089557FD9058E3
:10190000440F551F59F05F3F71F04795880F97FBC3
:10191000991F61F09F3F79F087950895121613067D
:101920001406551FF2CF4695F1DF08C016161706AC
:101930001806991FF1CF86957105610508940895E1
:10194000E894BB2766277727CB0197F908958ADFAC
:1019500008F48FEF0895CF93DF938230910510F450
:1019600082E090E0E0912901F0912A0120E030E04E
:10197000A0E0B0E0309739F1408151814817590714
:10198000B8F04817590771F482819381109729F0B4
:1019900013969C938E9312972CC090932A01809358
:1019A000290127C02115310531F04217530718F0DE
:1019B000A901DB0101C0EF019A01BD01DF01028035
:1019C000F381E02DD7CF21153105F9F0281B390B14
:1019D0002430310580F48A819B816115710521F0E5
:1019E000FB019383828304C090932A018093290191
:1019F000FE01329644C0FE01E20FF31F81939193E2
:101A000022503109398328833AC02091270130912F
:101A10002801232B41F42091620030916300309320
:101A20002801209327012091600030916100211549
:101A3000310541F42DB73EB74091640050916500E7
:101A4000241B350BE0912701F0912801E217F307E1
:101A5000A0F42E1B3F0B2817390778F0AC014E5F1E
:101A60005F4F2417350748F04E0F5F1F5093280132
:101A7000409327018193919302C0E0E0F0E0CF0111
:101A8000DF91CF910895CF93DF93009709F487C03A
:101A9000FC01329713821282C0912901D0912A0150
:101AA000209781F420813181280F391F80912701EF
:101AB000909128018217930779F5F0932801E0931C
:101AC00027016DC0DE0120E030E0AE17BF0750F403
:101AD00012964D915C9113979D014115510509F1A5
:101AE000DA01F3CFB383A28340815181840F951F24
:101AF0008A179B0771F48D919C911197840F951F04
:101B000002969183808312968D919C911397938373
:101B100082832115310529F4F0932A01E0932901EC
:101B20003EC0D9011396FC93EE9312974D915D91AF
:101B3000A40FB51FEA17FB0779F480819181840F08
:101B4000951F0296D90111969C938E938281938161
:101B500013969C938E931297E0E0F0E08A819B812C
:101B6000009719F0FE01EC01F9CFCE010296288111
:101B70003981820F931F2091270130912801281766
:101B8000390769F4309729F410922A01109229013B
:101B900002C013821282D0932801C0932701DF91E3
:101BA000CF9108954532510520F4423010F00C9445
:101BB000DD0DFB011082CB010895BB274A3031F4C3
:101BC000992322F4BDE2909581959F4F0C94E90DE5
:101BD000BB27FB015527AA27880F991FAA1FA41707
:101BE00010F0A41B83955051B9F7A05DAA3308F0FB
:101BF000A95DA193009779F7B111B1931192CB012F
:101C00000C941F0EDC01CB01FC01E199FECF06C054
:101C1000FFBBEEBBE09A31960DB20D9241505040A1
:101C2000B8F70895262FE199FECF9FBB8EBB2DBB41
:101C30000FB6F894E29AE19A0FBE01960895DC017E
:101C4000FC01672F71917723E1F7329704C07C91F3
:101C50006D9370836291AE17BF07C8F30895F8942F
:021C6000FFCFB4
:101C620000002B0120000038474649444C45006DD6
:101C72005F66623A006465627567006465627567F3
:101C82005F0074656D706572617475726565005090
:101C92003A00463A0048004300573A00543A00419D
:081CA200004D004F4646000012
:00000001FF
